:1000000000000120AD0C00001D0D00001F0D0000C0
:10001000210D0000230D0000250D00000000000050
:10002000000000000000000000000000270D00009C
:10003000290D0000000000002B0D00002D0D000018
:100040002F0D00002F0D00002F0D00002F0D0000C0
:100050002F0D00002F0D00002F0D00002F0D0000B0
:100060002F0D00002F0D00002F0D00002F0D0000A0
:100070002F0D00002F0D00002F0D00002F0D000090
:100080002F0D00002F0D00002F0D00002F0D000080
:100090002F0D00002F0D00002F0D00002F0D000070
:1000A0002F0D00002F0D00002F0D00002F0D000060
:1000B0002F0D00002F0D00000000000000000000C8
:1000C0002F0D00002F0D00002F0D00002F0D000040
:1000D0002F0D00002F0D00002F0D0000000000006C
:1000E0000000000000000000000000000000000010
:1000F0000000000000000000000000000000000000
:1001000000000000000000000000000000000000EF
:1001100000000000000000000000000000000000DF
:1001200000000000000000000000000000000000CF
:1001300000000000000000000000000000000000BF
:1001400000000000000000000000000000000000AF
:10015000000000000000000000000000000000009F
:10016000000000000000000000000000000000008F
:10017000000000000000000000000000000000007F
:10018000000000000000000000000000000000006F
:10019000000000000000000000000000000000005F
:1001A000000000000000000000000000000000004F
:1001B000000000000000000000000000000000003F
:1001C000000000000000000000000000000000002F
:1001D000000000000000000000000000000000001F
:1001E000000000000000000000000000000000000F
:1001F00000000000000000000000000000000000FF
:08020000940000000100000061
:100208000348044B834202D0034B03B1184770479D
:100218000800002008000020000000000548064BE8
:100228001B1AD90F01EBA301491002D0034B03B1EC
:100238001847704708000020080000200000000050
:1002480010B5064C237843B9FFF7DAFF044B13B116
:100258000448AFF300800123237010BD080000207C
:1002680000000000F00F000008B5054B1BB1054960
:100278000548AFF30080BDE80840FFF7CFBF00BFD7
:10028800000000000C000020F00F0000A3F5803AE9
:10029800704700BF174B002B08BF134B9D46FFF755
:1002A800F5FF00218B460F461348144A121A00F036
:1002B80049FD0E4B002B00D098470D4B002B00D06A
:1002C80098470020002104000D000D48002802D0A6
:1002D8000C4800F01BFE00F083FD2000290000F010
:1002E80013F800F021FD00BF000008000000000026
:1002F800000000000000012008000020C0010020CC
:10030800150F0000210F000080B500AF00F066F85F
:1003180000F004F800F02CF800BFFDE780B400AF4F
:100328000D4B0E4AC3F810250B4B0022C3F80021D1
:10033800094B0B4AC3F81425074B0A4AC3F818257A
:10034800054B094AC3F81C25034B084AC3F8202566
:1003580000BFBD4680BC704700600040010D020030
:100368000311030003120300031303000314030023
:1003780080B400AF134B144AC3F81025114B134A2D
:10038800C3F814250F4B104AC3F818250D4B104A13
:10039800C3F81C250B4B0C4AC3F82025094B0D4A02
:1003A800C3F82425074B084AC3F82825054B0A4AF1
:1003B800C3F82C25034B0F22C3F8042500BFBD4604
:1003C80080BC704700F001400061004004600040BC
:1003D800086000400C6000401060004080B400AF2E
:1003E8004FF0A0430C22C3F834274FF0A04301225A
:1003F800C3F844274FF0A0430122C3F848274FF021
:10040800A0430122C3F84C274FF0A0430122C3F8B0
:1004180050274FF0A0434FF40032C3F80C2500BF1B
:10042800BD4680BC7047000080B483B000AF1E4B4F
:100438001B68B3F1FF3F0AD11C4B1B68DBB27B6022
:100448001B4B1B681B0903F00F033B6005E0164BB1
:100458001B687B60174B1B683B607B68062B1DD1B4
:100468003B68033B042B17D801A252F823F000BFC6
:100478008D04000091040000950400009904000018
:100488009D04000001230AE0012308E0012306E09F
:10049800012304E0012302E0012300E000231846C1
:1004A8000C37BD4680BC704730010010E00F00F0EB
:1004B800E80F00F03401001080B483B000AF184B8F
:1004C8001B68DBB27B60174B1B681B0903F00F032B
:1004D8003B607B68062B1DD13B68033B042B17D878
:1004E80001A252F823F000BF05050000090500002D
:1004F8000D050000110500001505000001230AE0A4
:10050800002308E0002306E0002304E0002302E0C3
:10051800002300E0002318460C37BD4680BC704716
:10052800E00F00F0E80F00F080B483B000AF1E4B7E
:100538001B68B3F1FF3F0AD11C4B1B68DBB27B6021
:100548001B4B1B681B0903F00F033B6005E0164BB0
:100558001B687B60174B1B683B607B68062B1DD1B3
:100568003B68033B042B17D801A252F823F000BFC5
:100578008D05000091050000950500009905000013
:100588009D05000001230AE0012308E0012306E09D
:10059800012304E0012302E0012300E000231846C0
:1005A8000C37BD4680BC704730010010E00F00F0EA
:1005B800E80F00F03401001080B483B000AF184B8E
:1005C8001B68DBB27B60174B1B681B0903F00F032A
:1005D8003B607B68062B1DD13B68033B042B17D877
:1005E80001A252F823F000BF05060000090600002A
:1005F8000D060000110600001506000001230AE0A0
:10060800002308E0002306E0002304E0002302E0C2
:10061800002300E0002318460C37BD4680BC704715
:10062800E00F00F0E80F00F080B483B000AF1E4B7D
:100638001B68B3F1FF3F0AD11C4B1B68DBB27B6020
:100648001B4B1B681B0903F00F033B6005E0164BAF
:100658001B687B60174B1B683B607B68062B1DD1B2
:100668003B68033B042B17D801A252F823F000BFC4
:100678008D0600009106000095060000990600000E
:100688009D06000001230AE0012308E0012306E09B
:10069800012304E0012302E0012300E000231846BF
:1006A8000C37BD4680BC704730010010E00F00F0E9
:1006B800E80F00F03401001080B483B000AF184B8D
:1006C8001B68DBB27B60174B1B681B0903F00F0329
:1006D8003B607B68062B1DD13B68033B042B17D876
:1006E80001A252F823F000BF050700000907000027
:1006F8000D070000110700001507000001230AE09C
:10070800002308E0002306E0002304E0002302E0C1
:10071800002300E0002318460C37BD4680BC704714
:10072800E00F00F0E80F00F080B483B000AF184B82
:100738001B68DBB27B60174B1B681B0903F00F03B8
:100748003B607B68062B1DD13B68033B042B17D805
:1007580001A252F823F000BF7507000079070000D6
:100768007D070000810700008507000001230AE0DB
:10077800002308E0002306E0002304E0002302E051
:10078800002300E0002318460C37BD4680BC7047A4
:10079800E00F00F0E80F00F080B483B000AF1E4B0C
:1007A8001B68B3F1FF3F0AD11C4B1B68DBB27B60AF
:1007B8001B4B1B681B0903F00F033B6005E0164B3E
:1007C8001B687B60174B1B683B607B68062B1DD141
:1007D8003B68033B042B17D801A252F823F000BF53
:1007E800FD070000010800000508000009080000D6
:1007F8000D08000000230AE0002308E0012306E0BA
:10080800012304E0012302E0012300E0002318464D
:100818000C37BD4680BC704730010010E00F00F077
:10082800E80F00F03401001080B483B000AF1E4B15
:100838001B68B3F1FF3F0AD11C4B1B68DBB27B601E
:100848001B4B1B681B0903F00F033B6005E0164BAD
:100858001B687B60174B1B683B607B68062B1DD1B0
:100868003B68033B042B17D801A252F823F000BFC2
:100878008D08000091080000950800009908000004
:100888009D08000001230AE0012308E0012306E097
:10089800012304E0012302E0012300E000231846BD
:1008A8000C37BD4680BC704730010010E00F00F0E7
:1008B800E80F00F03401001080B483B000AF1E4B85
:1008C8001B68B3F1FF3F0AD11C4B1B68DBB27B608E
:1008D8001B4B1B681B0903F00F033B6005E0164B1D
:1008E8001B687B60174B1B683B607B68062B1DD120
:1008F8003B68033B042B17D801A252F823F000BF32
:100908001D0900002109000025090000290900002F
:100918002D09000001230AE0012308E0012306E075
:10092800012304E0012302E0012300E0002318462C
:100938000C37BD4680BC704730010010E00F00F056
:10094800E80F00F03401001080B483B000AF164BFC
:100958001B687B60154B1B683B607B68062B1DD1B1
:100968003B68033B042B17D801A252F823F000BFC1
:100978008D090000910900009509000099090000FF
:100988009D09000000230AE0002308E0002306E098
:10099800012304E0012302E0012300E000231846BC
:1009A8000C37BD4680BC7047300100103401001080
:1009B80080B483B000AF164B1B687B60154B1B6877
:1009C8003B607B68062B1DD13B68033B042B17D883
:1009D80001A252F823F000BFF5090000F909000050
:1009E800FD090000010A0000050A000000230AE0D2
:1009F800002308E0002306E0002304E0012302E0CE
:100A0800012300E0002318460C37BD4680BC704720
:100A1800300100103401001080B500AFFFF7C8FFA7
:100A28000346002B07D04FF010234FF08042D3F835
:100A38000832C2F8583500BF80BD000080B400AF4E
:100A4800034B044A1A6000BFBD4680BC704700BF14
:100A5800000000200090D00380B500AFFFF7E4FC51
:100A68000346002B06D07F4B1B681B0A7E4A03F007
:100A78001F031360FFF720FD0346002B02D07B4BBA
:100A88007B4A1A60FFF750FD0346002B06D0794BCE
:100A98001B685B0B784A03F007031360FFF78CFDB4
:100AA8000346002B05D0754BDB68744A23F080732E
:100AB800D360FFF7B9FD0346002B0ED04FF08043FB
:100AC8000022C3F80C214FF080430022C3F8102104
:100AD8004FF080430022C3F83825FFF7EDFD0346A9
:100AE800002B02D0664B03221A60FFF71DFE034657
:100AF800002B0BD0634B05221A60634B01221A604E
:100B0800624B00221A60624B3F221A60FFF744FED4
:100B18000346002B76D04FF080535E4AD3F8043456
:100B2800C2F820354FF080535A4AD3F80834C2F837
:100B380024354FF08053574AD3F80C34C2F828357F
:100B48004FF08053534AD3F81034C2F82C354FF085
:100B58008053504AD3F81434C2F830354FF08053DC
:100B68004C4AD3F81834C2F834354FF08053494A08
:100B7800D3F81C34C2F840354FF08053454AD3F8B7
:100B88002034C2F844354FF08053424AD3F8243415
:100B9800C2F848354FF080533E4AD3F82834C2F89B
:100BA8004C354FF080533B4AD3F82C34C2F85035BB
:100BB8004FF08053374AD3F83034C2F854354FF0E9
:100BC8008053344AD3F83434C2F860354FF0805338
:100BD800304AD3F83834C2F864354FF080532D4A80
:100BE800D3F83C34C2F868354FF08053294AD3F81B
:100BF8004034C2F86C354FF08053264AD3F8443459
:100C0800C2F87035FFF710FE0346002B05D0224BC3
:100C18001B68224A03F04F031360FFF74DFE03469B
:100C2800002B0DD04FF08043D3F8003403F00103BC
:100C3800002B05D04FF080436FF00102C3F8002469
:100C4800FFF782FE0346002B05D0154B1B68144A9C
:100C580043F480631360FFF7DFFEFFF7EFFE00BF8A
:100C680080BD00BF240300104035014074C0074018
:100C78000DF0ADBA440200103C050040F0ED00E074
:100C8800A005004010560040885600401856004005
:100C98001456004000C0004058020010E40E004006
:100CA8003C1700400F49104A104B00F010F810494B
:100CB800104A114B00F00BF81049114A114B00F083
:100CC80006F81149114A124B00F001F806E0521AD1
:100CD80003DD043A98588850FBDC7047FFF7BCFEE8
:100CE800FFF7D8FA00000020080000203C100000A0
:100CF8000800002008000020441000000800002020
:100D0800080000204410000008000020080000200F
:100D180044100000FEE7FEE7FEE7FEE7FEE7FEE719
:100D2800FEE7FEE7FEE7FEE708B50021044600F00F
:100D38008DF8034B1B6803B19847204600F040F933
:100D480024000020830730B546D08418844604E088
:100D580003F8011B9D0704D09C46A4456346F7D1C0
:100D680030BD013A0244A2EB0C02032A29D9CCB2C5
:100D780004EB04240F2A04EB04442FD9A2F1100C2D
:100D88002CF00F0C03F11005AC44C3E90044C3E98F
:100D9800024410336345F8D112F00C0F02F00F0E25
:100DA80018D02EF0030C9C44AEF104051A4642F804
:100DB800044B6245FBD125F0030404330EF0030213
:100DC8002344002ACCD0C9B21A4403F8011B934229
:100DD800FBD130BD7246F4E70346C6E79646E0E726
:100DE80070B50F4B0F4DAB42A3EB050607D0B610FD
:100DF800002455F8043B01349847A642F9D800F07E
:100E0800E1F8094D094B5E1BAB424FEAA60606D036
:100E1800002455F8043B01349847A642F9D870BD20
:100E2800D80F0000D80F0000D80F0000E00F000016
:100E3800704700BF704700BF024B13B1024800F073
:100E480065B8704700000000210F00002DE9F04F41
:100E58002C4B2D4F83B082461868CDF804A08B46E2
:100E6800FFF7E6FF3E68AEB14FF000094FF001080A
:100E78007468651E0ED4013406EB8404BBF1000FC0
:100E88000FD0D4F800315B450BD0013D6A1CA4F1AA
:100E98000404F6D11B4B186803B0BDE8F04FFFF708
:100EA800C9BF73682268013BAB420CBF7560C4F8C8
:100EB800009072B1D6F88811D6F804A008FA05F3A4
:100EC8000B420CD1904773683A68534513D1B2422C
:100ED80011D1013D6B1CA4F10404CFD1DAE7D6F897
:100EE8008C01D4F88010034209D1019890477368A7
:100EF8003A685345EBD0002ACCD01646B8E70846E6
:100F08009047E0E7040000202C0000200023014661
:100F18001A46184600F014B838B5074D074C2C1B74
:100F2800A41005D0013C55F8043D9847002CF9D190
:100F3800BDE8384000F050B8F00F0000EC0F00009A
:100F48002DE9F8431B4D0646286898460F469146FA
:100F5800FFF76EFF184B1C681CB3286865681F2DC7
:100F680022DC4EB96B1C0235636044F82570FFF72C
:100F780061FF0020BDE8F88304EB85010123C1F877
:100F88008890D4F88821AB401A43022EC4F88821EF
:100F9800C1F80881E6D1D4F88C211A43C4F88C2111
:100FA800E0E7064C1C60D8E7FFF744FF4FF0FF303E
:100FB800E0E700BF040000202C00002030000020E3
:100FC800FEE700BFF8B500BFF8BC08BC9E467047F6
:100FD800410E000071020000F8B500BFF8BC08BC63
:0C0FE8009E467047490200000000000017
:100FF4003C1000000000002002000000441000002B
:101004000800002000000000441000000800002038
:101014000000000044100000080000200000000050
:10102400080000206E000000C00100200000000045
:08103400C001002000000000D3
:08103C000090D0032800002001
:0400000300000CAD40
:00000001FF
