:10000000000001204D0C0000BD0C0000BF0C0000E2
:10001000C10C0000C30C0000C50C00000000000073
:10002000000000000000000000000000C70C0000FD
:10003000C90C000000000000CB0C0000CD0C00003B
:10004000CF0C0000CF0C0000CF0C0000CF0C000044
:10005000CF0C0000CF0C0000CF0C0000CF0C000034
:10006000CF0C0000CF0C0000CF0C0000CF0C000024
:10007000CF0C0000CF0C0000CF0C0000CF0C000014
:10008000CF0C0000CF0C0000CF0C0000CF0C000004
:10009000CF0C0000CF0C0000CF0C0000CF0C0000F4
:1000A000CF0C0000CF0C0000CF0C0000CF0C0000E4
:1000B000CF0C0000CF0C000000000000000000008A
:1000C000CF0C0000CF0C0000CF0C0000CF0C0000C4
:1000D000CF0C0000CF0C0000CF0C0000000000008F
:1000E0000000000000000000000000000000000010
:1000F0000000000000000000000000000000000000
:1001000000000000000000000000000000000000EF
:1001100000000000000000000000000000000000DF
:1001200000000000000000000000000000000000CF
:1001300000000000000000000000000000000000BF
:1001400000000000000000000000000000000000AF
:10015000000000000000000000000000000000009F
:10016000000000000000000000000000000000008F
:10017000000000000000000000000000000000007F
:10018000000000000000000000000000000000006F
:10019000000000000000000000000000000000005F
:1001A000000000000000000000000000000000004F
:1001B000000000000000000000000000000000003F
:1001C000000000000000000000000000000000002F
:1001D000000000000000000000000000000000001F
:1001E000000000000000000000000000000000000F
:1001F00000000000000000000000000000000000FF
:08020000940000000100000061
:100208000348044B834202D0034B03B1184770479D
:100218000800002008000020000000000548064BE8
:100228001B1AD90F01EBA301491002D0034B03B1EC
:100238001847704708000020080000200000000050
:1002480010B5064C237843B9FFF7DAFF044B13B116
:100258000448AFF300800123237010BD080000207C
:1002680000000000900F000008B5054B1BB10549C0
:100278000548AFF30080BDE80840FFF7CFBF00BFD7
:10028800000000000C000020900F0000A3F5803A49
:10029800704700BF174B002B08BF134B9D46FFF755
:1002A800F5FF00218B460F461348144A121A00F036
:1002B80019FD0E4B002B00D098470D4B002B00D09A
:1002C80098470020002104000D000D48002802D0A6
:1002D8000C4800F0EBFD00F053FD2000290000F071
:1002E80013F800F0F1FC00BF000008000000000057
:1002F800000000000000012008000020C0010020CC
:10030800B50E0000C10E000080B500AF00F00CF87B
:10031800482000F03BF8692000F038F80A2000F087
:1003280035F800BFFDE7000080B400AF4FF0A043F0
:100338000422C3F820274FF0A0430522C3F818274A
:10034800104B0822C3F80C250E4B0622C3F80425CF
:100358000C4B0D4AC3F81C250A4B4FF0FF32C3F86B
:100368000025084B4FF0FF32C3F80825054B04223F
:10037800C3F8F824034B01221A6000BFBD4680BCB5
:10038800704700BF002000400050270080B483B0B1
:1003980000AF0346FB710B4B01229A60094AFB79B7
:1003A800C2F8143500BF074BD3F81C31002BFAD024
:1003B800044B0022C3F81C2100BF0C37BD4680BC8B
:1003C800704700BF0020004080B483B000AF1E4BD0
:1003D8001B68B3F1FF3F0AD11C4B1B68DBB27B6083
:1003E8001B4B1B681B0903F00F033B6005E0164B12
:1003F8001B687B60174B1B683B607B68062B1DD115
:100408003B68033B042B17D801A252F823F000BF26
:100418002D040000310400003504000039040000F8
:100428003D04000001230AE0012308E0012306E05F
:10043800012304E0012302E0012300E00023184621
:100448000C37BD4680BC704730010010E00F00F04B
:10045800E80F00F03401001080B483B000AF184BEF
:100468001B68DBB27B60174B1B681B0903F00F038B
:100478003B607B68062B1DD13B68033B042B17D8D8
:1004880001A252F823F000BFA5040000A90400004F
:10049800AD040000B1040000B504000001230AE027
:1004A800002308E0002306E0002304E0002302E024
:1004B800002300E0002318460C37BD4680BC704777
:1004C800E00F00F0E80F00F080B483B000AF1E4BDF
:1004D8001B68B3F1FF3F0AD11C4B1B68DBB27B6082
:1004E8001B4B1B681B0903F00F033B6005E0164B11
:1004F8001B687B60174B1B683B607B68062B1DD114
:100508003B68033B042B17D801A252F823F000BF25
:100518002D050000310500003505000039050000F3
:100528003D05000001230AE0012308E0012306E05D
:10053800012304E0012302E0012300E00023184620
:100548000C37BD4680BC704730010010E00F00F04A
:10055800E80F00F03401001080B483B000AF184BEE
:100568001B68DBB27B60174B1B681B0903F00F038A
:100578003B607B68062B1DD13B68033B042B17D8D7
:1005880001A252F823F000BFA5050000A90500004C
:10059800AD050000B1050000B505000001230AE023
:1005A800002308E0002306E0002304E0002302E023
:1005B800002300E0002318460C37BD4680BC704776
:1005C800E00F00F0E80F00F080B483B000AF1E4BDE
:1005D8001B68B3F1FF3F0AD11C4B1B68DBB27B6081
:1005E8001B4B1B681B0903F00F033B6005E0164B10
:1005F8001B687B60174B1B683B607B68062B1DD113
:100608003B68033B042B17D801A252F823F000BF24
:100618002D060000310600003506000039060000EE
:100628003D06000001230AE0012308E0012306E05B
:10063800012304E0012302E0012300E0002318461F
:100648000C37BD4680BC704730010010E00F00F049
:10065800E80F00F03401001080B483B000AF184BED
:100668001B68DBB27B60174B1B681B0903F00F0389
:100678003B607B68062B1DD13B68033B042B17D8D6
:1006880001A252F823F000BFA5060000A906000049
:10069800AD060000B1060000B506000001230AE01F
:1006A800002308E0002306E0002304E0002302E022
:1006B800002300E0002318460C37BD4680BC704775
:1006C800E00F00F0E80F00F080B483B000AF184BE3
:1006D8001B68DBB27B60174B1B681B0903F00F0319
:1006E8003B607B68062B1DD13B68033B042B17D866
:1006F80001A252F823F000BF1507000019070000F7
:100708001D070000210700002507000001230AE05B
:10071800002308E0002306E0002304E0002302E0B1
:10072800002300E0002318460C37BD4680BC704704
:10073800E00F00F0E80F00F080B483B000AF1E4B6C
:100748001B68B3F1FF3F0AD11C4B1B68DBB27B600F
:100758001B4B1B681B0903F00F033B6005E0164B9E
:100768001B687B60174B1B683B607B68062B1DD1A1
:100778003B68033B042B17D801A252F823F000BFB3
:100788009D070000A1070000A5070000A9070000B9
:10079800AD07000000230AE0002308E0012306E07B
:1007A800012304E0012302E0012300E000231846AE
:1007B8000C37BD4680BC704730010010E00F00F0D8
:1007C800E80F00F03401001080B483B000AF1E4B76
:1007D8001B68B3F1FF3F0AD11C4B1B68DBB27B607F
:1007E8001B4B1B681B0903F00F033B6005E0164B0E
:1007F8001B687B60174B1B683B607B68062B1DD111
:100808003B68033B042B17D801A252F823F000BF22
:100818002D080000310800003508000039080000E4
:100828003D08000001230AE0012308E0012306E057
:10083800012304E0012302E0012300E0002318461D
:100848000C37BD4680BC704730010010E00F00F047
:10085800E80F00F03401001080B483B000AF1E4BE5
:100868001B68B3F1FF3F0AD11C4B1B68DBB27B60EE
:100878001B4B1B681B0903F00F033B6005E0164B7D
:100888001B687B60174B1B683B607B68062B1DD180
:100898003B68033B042B17D801A252F823F000BF92
:1008A800BD080000C1080000C5080000C908000014
:1008B800CD08000001230AE0012308E0012306E037
:1008C800012304E0012302E0012300E0002318468D
:1008D8000C37BD4680BC704730010010E00F00F0B7
:1008E800E80F00F03401001080B483B000AF164B5D
:1008F8001B687B60154B1B683B607B68062B1DD112
:100908003B68033B042B17D801A252F823F000BF21
:100918002D090000310900003509000039090000DF
:100928003D09000000230AE0002308E0002306E058
:10093800012304E0012302E0012300E0002318461C
:100948000C37BD4680BC70473001001034010010E0
:1009580080B483B000AF164B1B687B60154B1B68D7
:100968003B607B68062B1DD13B68033B042B17D8E3
:1009780001A252F823F000BF950900009909000070
:100988009D090000A1090000A509000000230AE054
:10099800002308E0002306E0002304E0012302E02E
:1009A800012300E0002318460C37BD4680BC704781
:1009B800300100103401001080B500AFFFF7C8FF08
:1009C8000346002B07D04FF010234FF08042D3F896
:1009D8000832C2F8583500BF80BD000080B400AFAF
:1009E800034B044A1A6000BFBD4680BC704700BF75
:1009F800000000200090D00380B500AFFFF7E4FCB2
:100A08000346002B06D07F4B1B681B0A7E4A03F067
:100A18001F031360FFF720FD0346002B02D07B4B1A
:100A28007B4A1A60FFF750FD0346002B06D0794B2E
:100A38001B685B0B784A03F007031360FFF78CFD14
:100A48000346002B05D0754BDB68744A23F080738E
:100A5800D360FFF7B9FD0346002B0ED04FF080435B
:100A68000022C3F80C214FF080430022C3F8102164
:100A78004FF080430022C3F83825FFF7EDFD034609
:100A8800002B02D0664B03221A60FFF71DFE0346B7
:100A9800002B0BD0634B05221A60634B01221A60AE
:100AA800624B00221A60624B3F221A60FFF744FE35
:100AB8000346002B76D04FF080535E4AD3F80434B7
:100AC800C2F820354FF080535A4AD3F80834C2F898
:100AD80024354FF08053574AD3F80C34C2F82835E0
:100AE8004FF08053534AD3F81034C2F82C354FF0E6
:100AF8008053504AD3F81434C2F830354FF080533D
:100B08004C4AD3F81834C2F834354FF08053494A68
:100B1800D3F81C34C2F840354FF08053454AD3F817
:100B28002034C2F844354FF08053424AD3F8243475
:100B3800C2F848354FF080533E4AD3F82834C2F8FB
:100B48004C354FF080533B4AD3F82C34C2F850351B
:100B58004FF08053374AD3F83034C2F854354FF049
:100B68008053344AD3F83434C2F860354FF0805398
:100B7800304AD3F83834C2F864354FF080532D4AE0
:100B8800D3F83C34C2F868354FF08053294AD3F87B
:100B98004034C2F86C354FF08053264AD3F84434B9
:100BA800C2F87035FFF710FE0346002B05D0224B24
:100BB8001B68224A03F04F031360FFF74DFE0346FC
:100BC800002B0DD04FF08043D3F8003403F001031D
:100BD800002B05D04FF080436FF00102C3F80024CA
:100BE800FFF782FE0346002B05D0154B1B68144AFD
:100BF80043F480631360FFF7DFFEFFF7EFFE00BFEB
:100C080080BD00BF240300104035014074C0074078
:100C18000DF0ADBA440200103C050040F0ED00E0D4
:100C2800A005004010560040885600401856004065
:100C38001456004000C0004058020010E40E004066
:100C48003C1700400F49104A104B00F010F81049AB
:100C5800104A114B00F00BF81049114A114B00F0E3
:100C680006F81149114A124B00F001F806E0521A31
:100C780003DD043A98588850FBDC7047FFF7BCFE48
:100C8800FFF708FB0000002008000020DC0F000030
:100C98000800002008000020E40F000008000020E1
:100CA80008000020E40F00000800002008000020D1
:100CB800E40F0000FEE7FEE7FEE7FEE7FEE7FEE7DB
:100CC800FEE7FEE7FEE7FEE708B50021044600F070
:100CD8008DF8034B1B6803B19847204600F040F994
:100CE80024000020830730B546D08418844604E0E9
:100CF80003F8011B9D0704D09C46A4456346F7D121
:100D080030BD013A0244A2EB0C02032A29D9CCB225
:100D180004EB04240F2A04EB04442FD9A2F1100C8D
:100D28002CF00F0C03F11005AC44C3E90044C3E9EF
:100D3800024410336345F8D112F00C0F02F00F0E85
:100D480018D02EF0030C9C44AEF104051A4642F864
:100D5800044B6245FBD125F0030404330EF0030273
:100D68002344002ACCD0C9B21A4403F8011B934289
:100D7800FBD130BD7246F4E70346C6E79646E0E786
:100D880070B50F4B0F4DAB42A3EB050607D0B6105D
:100D9800002455F8043B01349847A642F9D800F0DE
:100DA800E1F8094D094B5E1BAB424FEAA60606D097
:100DB800002455F8043B01349847A642F9D870BD81
:100DC800780F0000780F0000780F0000800F0000F7
:100DD800704700BF704700BF024B13B1024800F0D4
:100DE80065B8704700000000C10E00002DE9F04F03
:100DF8002C4B2D4F83B082461868CDF804A08B4643
:100E0800FFF7E6FF3E68AEB14FF000094FF001086A
:100E18007468651E0ED4013406EB8404BBF1000F20
:100E28000FD0D4F800315B450BD0013D6A1CA4F10A
:100E38000404F6D11B4B186803B0BDE8F04FFFF768
:100E4800C9BF73682268013BAB420CBF7560C4F828
:100E5800009072B1D6F88811D6F804A008FA05F304
:100E68000B420CD1904773683A68534513D1B2428C
:100E780011D1013D6B1CA4F10404CFD1DAE7D6F8F7
:100E88008C01D4F88010034209D101989047736807
:100E98003A685345EBD0002ACCD01646B8E7084646
:100EA8009047E0E7040000202C00002000230146C2
:100EB8001A46184600F014B838B5074D074C2C1BD5
:100EC800A41005D0013C55F8043D9847002CF9D1F1
:100ED800BDE8384000F050B8900F00008C0F0000BB
:100EE8002DE9F8431B4D0646286898460F4691465B
:100EF800FFF76EFF184B1C681CB3286865681F2D28
:100F080022DC4EB96B1C0235636044F82570FFF78C
:100F180061FF0020BDE8F88304EB85010123C1F8D7
:100F28008890D4F88821AB401A43022EC4F888214F
:100F3800C1F80881E6D1D4F88C211A43C4F88C2171
:100F4800E0E7064C1C60D8E7FFF744FF4FF0FF309E
:100F5800E0E700BF040000202C0000203000002043
:100F6800FEE700BFF8B500BFF8BC08BC9E46704756
:100F7800E10D000071020000F8B500BFF8BC08BC24
:0C0F88009E467047490200000000000077
:100F9400DC0F00000000002002000000E40F00004D
:100FA4000800002000000000E40F000008000020FA
:100FB40000000000E40F0000080000200000000012
:100FC400080000206E000000C001002000000000A6
:080FD400C00100200000000034
:080FDC000090D0032800002062
:0400000300000C4DA0
:00000001FF
